:100000000C94CD010C94FE010C94FE010C94FE01A5
:100010000C94FE010C94FE010C94FE010C94FE0164
:100020000C94FE010C94CD0F0C94CD0F0C94CD0FBD
:100030000C94FE010C94FE010C94FE010C94FE0144
:100040000C94FE010C94FE010C94FE010C94FE0134
:100050000C94FE010C94FE010C94FE010C945F0EB6
:100060000C94FE010C94290E0C94FF0D0C94FE01CF
:100070000C94FE010C94FE010C94FE010C94FE0104
:100080000C94FE010C94FE010C94FE010C94FE01F4
:100090000C94FE010C94FE010C94FE010C94A90E2C
:1000A0000C94FE010C94FE010C94FE010C94FE01D4
:1000B0000C94FE010C94FE010C94FE010C94FE01C4
:1000C0000C94FE010C94FE010C94FE010C94FE01B4
:1000D0000C94FE010C94FE010C94FE010C94FE01A4
:1000E0000C94FE01036EDB363D9A9999993DABAABB
:1000F000AA2A3E000000803F084AD73B3BCE016E53
:1001000084BCBFFDC12F3D6C74319ABD56833DDA6E
:100110003D00C77F11BED9E4BB4C3E916BAAAABE7D
:10012000000000803F072C7AA5BA6CC590DA3B939B
:1001300065FC8BBC53F810FD3C5692834DBD879DEA
:100140003AB63DCBC9BF5BBE73DA0FC93F05A84CB9
:10015000CDB2D44EB93836A9020C50B99186880870
:100160003CA6AAAA2ABE000000803F0664EC1B3C05
:1001700004BC163E3BE5B93CC93C37C29E5A3D66BD
:100180000498083EEA69AAAA3E000000803F0C9449
:10019000E7060C942E070C947C160C947E040C94A9
:1001A00065030C949D030C9472160C9401070C9437
:1001B000FF020C949A040C9434030C94EA030C94FC
:1001C00067040C94EC070C94FE020C9443030C940B
:1001D00075070C94FA060C94D8060C9486040C94BB
:1001E000531B0C945D070C9434160C9459040C9416
:1001F0005A160C9404080C9449100C9426080C947C
:100200003E090C9457030C9490040C944C160C94D7
:1002100025080C946E040C946B040C949E1D0C9495
:1002200063040C9464160C945F040C9407030C9400
:100230008C040C9442160C9474040C9494040C9446
:10024000D7060C9499040C949E040C94B9160C9443
:1002500082040C94780400002100240027002A0066
:100260002D003000330001010000040107010A01E4
:1002700000000A0B02090C0D0E0807030401000020
:10028000000000000000000000000000000000006E
:10029000000000000000000000000000121110002B
:1002A000000000000000000000000000000000004E
:1002B00000000000000052656365697665643A20BD
:1002C00000426175647261746520001F1C1F1E1F4F
:1002D0001E1F1F1E1F1E00002000230026002900D5
:1002E0002C002F003200000100000301060109016B
:1002F00000002200250028002B002E0031003400D1
:1003000002010000050108010B01050505050705AF
:1003100008080808020202020A0A08080404040481
:1003200001010101010101010303030303030303AD
:10033000040707070C0C0C0C0C0C0C0C020202023C
:1003400006060606060606060B0B0B0B0B0B0B0B25
:1003500001021020200808102040102040800201D7
:1003600002010804020101020408102040808040BC
:1003700020100804020180040201804020100804BB
:100380000201080402010102040810204080010259
:1003900004081020408049109E1D11241FBECFEF7D
:1003A000D1E2DEBFCDBF00E00CBF27E0A0E0B5E0AA
:1003B00001C01D92AE37B207E1F715E0A0E0B2E050
:1003C000ECE3F9E400E00BBF02C007900D92A0300F
:1003D000B107D9F711E0CCECD1E000E006C02197DD
:1003E0000109802FFE010E945322CB3CD10780E0FF
:1003F0000807A9F70E94EA110C948C240C940000C1
:100400009B01AC0110925E0710925D0710925C0791
:1004100010925B0710925A071092590760E079E03A
:100420008DE390E00E943422B901C9010397243082
:10043000310510F481E090E09093600780935F07AE
:1004400080914F0796EF980F943048F0EEECE80F4C
:10045000E43028F0E2ECE80FE83008F079C0F90168
:10046000F695E795E431F10508F4A2C07397F0938F
:100470005A07E09359076630710508F49CC0B9012A
:100480006550710970935C0760935B07B901660F53
:10049000771F260F371F36952795369527952D30D0
:1004A000310508F48BC02C50310930935E0720933E
:1004B0005D07943050F02EEC280F243030F022EC01
:1004C000280FF0E0E0E0283010F4E8E6F0E02081CA
:1004D000943028F032EC380F383008F472C031E034
:1004E000232B943048F09EEC980F943028F08E53D4
:1004F000F0E0E0E0883010F4E8E6F0E020832091BE
:100500004F0736EF320F343008F45DC08EEC820FA7
:10051000843008F458C082EC820F883008F456C04A
:1005200090E080E09093570780935607343008F0AE
:1005300050C02650330B81E001C0880F2A95EAF79E
:100540008093580780915F07909160070197F1F7BA
:1005500080915D0790915E07892B49F1E091EA0552
:10056000F091EB0587E0E334F80709F1309739F0B3
:10057000A389B4899C918589809589238C938091E6
:1005800061078E7F809361071092E9051092E8055C
:1005900083E497E09093EB058093EA05E09156079A
:1005A000F0915707808190915807892B8083089597
:1005B000E1E0F0E05CCF61E070E064CF21E030E0AA
:1005C00074CF34E08DCF8BE690E0ACCF8DE690E039
:1005D000A9CF88E0223309F4B3CF84E0233309F4B0
:1005E000AFCF82E0243309F4ABCF82EC820F8830A6
:1005F00018F42E53330B9FCF81E0A2CF08950895B6
:10060000DC01ED91FC910190F081E02D1994AF9205
:10061000BF92CF92DF92EF92FF920F931F93CF93EF
:10062000DF936C017B018B01040F151FEB015E0151
:10063000AE18BF08C017D10759F06991D601ED91E6
:10064000FC910190F081E02DC6011995892B79F775
:10065000C501DF91CF911F910F91FF90EF90DF9037
:10066000CF90BF90AF900895FC01538D448D252FFE
:1006700030E0842F90E0821B930B541710F0CF963C
:10068000089501970895FC01918D828D981761F06E
:10069000A28DAE0FBF2FB11D5D968C91928D9F5F85
:1006A0009F73928F90E008958FEF9FEF0895FC0164
:1006B000918D828D981731F0828DE80FF11D858D17
:1006C00090E008958FEF9FEF0895FC01918D228DAA
:1006D000892F90E0805C9F4F821B91098F7399272F
:1006E00008958CE396E00E94650321E0892B09F4CC
:1006F00020E0822F0895FC01A48DA80FB92FB11D11
:10070000A35ABF4F2C91848D90E001968F73992747
:10071000848FA689B7892C93A089B1898C91837025
:1007200080648C93938D848D981306C00288F3891E
:10073000E02D80818F7D80830895EF92FF920F934B
:100740001F93CF93DF93EC0181E0888F9B8D8C8D7D
:1007500098131AC0E889F989808185FF15C09FB771
:10076000F894EE89FF896083E889F9898081837034
:10077000806480839FBF81E090E0DF91CF911F91E3
:100780000F91FF90EF900895F62E0B8D10E00F5F04
:100790001F4F0F731127E02E8C8D8E110CC00FB6DA
:1007A00007FCFACFE889F989808185FFF5CFCE0172
:1007B0000E947B03F1CFEB8DEC0FFD2FF11DE35A6F
:1007C000FF4FF0829FB7F8940B8FEA89FB898081F5
:1007D0008062CFCFCF93DF93EC01888D8823B9F06F
:1007E000AA89BB89E889F9898C9185FD03C080813C
:1007F00086FD0DC00FB607FCF7CF8C9185FFF2CFB9
:10080000808185FFEDCFCE010E947B03E9CFDF9190
:10081000CF91089580E090E0892B29F00E94710328
:1008200081110E94000080E090E0892B49F080E077
:1008300090E0892B29F00E94000081110E940000A5
:1008400080E090E0892B49F080E090E0892B29F04E
:100850000E94000081110E94000080E090E0892B3E
:1008600049F080E090E0892B29F00E94000081117E
:100870000C94000008958150823108F05AC0E82F8E
:10088000F0E08827E95BFB4F8F4F0C9453226704FD
:100890006B0459045F04630499046E0474047804BF
:1008A0007E04820486048C049004990494049A04BF
:1008B0009E04809180008F778093800008958091BE
:1008C00080008F7DF9CF80918000877FF5CF84B540
:1008D0008F7784BD089584B58F7DFBCF8091B00064
:1008E0008F778093B00008958091B0008F7DF9CF0D
:1008F000809190008F778093900008958091900070
:100900008F7DF9CF80919000877FF5CF8091A000F7
:100910008F778093A00008958091A0008F7DF9CFFC
:100920008091A000877FF5CF809120018F77809301
:1009300020010895809120018F7DF9CF80912001C1
:10094000877FF5CFCF93DF93282F30E0F901E0596F
:10095000FD4F8491F901E05BFC4FD491F901E65F12
:10096000FC4FC491CC23A1F081110E943B04EC2FD9
:10097000F0E0EE0FFF1FEA52FD4FA591B491EC910C
:10098000ED2381E090E009F480E0DF91CF910895BC
:1009900080E090E0FACF1F93CF93DF93282F30E0D1
:1009A000F901E059FD4F8491F901E05BFC4FD491CE
:1009B000F901E65FFC4FC491CC23A9F0162F8111F9
:1009C0000E943B04EC2FF0E0EE0FFF1FE051FD4FC3
:1009D000A591B4918FB7F894EC91111108C0D095FE
:1009E000DE23DC938FBFDF91CF911F910895DE2B23
:1009F000F8CFCF93DF9390E0FC01E05BFC4F2491B4
:100A0000865F9C4FFC0184918823D1F090E0880F91
:100A1000991FFC01EA5AFD4FA591B491FC01E051E8
:100A2000FD4FC591D49161110EC09FB7F8948C9180
:100A3000E22FE0958E238C932881E223E8839FBFE9
:100A4000DF91CF9108958FB7F894EC91E22BEC935E
:100A50008FBFF6CF3FB7F8948091850590918605BA
:100A6000A0918705B091880526B5A89B05C02F3FAA
:100A700019F00196A11DB11D3FBFBA2FA92F982FC4
:100A80008827BC01CD01620F711D811D911D42E0BF
:100A9000660F771F881F991F4A95D1F708958F9287
:100AA0009F92AF92BF92CF92DF92EF92FF924B0153
:100AB0005C010E942A056B017C010E942A056C19C9
:100AC0007D098E099F09683E734081059105A8F351
:100AD00021E0821A9108A108B10888EEC80E83E0CF
:100AE000D81EE11CF11C81149104A104B10429F762
:100AF000FF90EF90DF90CF90BF90AF909F908F903E
:100B0000089520916105260F3327331F21323105C7
:100B1000ECF420911206FC0190E080E0243069F0B2
:100B200082E00895A09161052191AC014F5B5A4F7D
:100B3000A40FB52FB11D2C930196861798F38091C1
:100B40006105680F6093610580E0089581E0089574
:100B50001092120681E0809311061092EC0561E07C
:100B600084E10E94CB0461E085E10E94CB04E9EBC3
:100B7000F0E080818E7F808380818D7F808388E418
:100B80008093B80085E48093BC000895CF93DF93F1
:100B900091E0909340058823B9F0C091B800D091BE
:100BA000BA008091BC008A7B8093BC0060E084E145
:100BB0000E94CB0460E085E10E94CB040E94A8055E
:100BC000D093BA00C093B800DF91CF9108958F926F
:100BD0009F92AF92BF92CF92DF92EF92FF920F93CC
:100BE0001F93CF93DF93D0913B06D13208F0D7C04B
:100BF000182FC0913A060E942A056B017C01809152
:100C0000120681116BC082E08093120610931106C8
:100C10008FEF8093100610920F06D0930E06AAE174
:100C2000B6E0EEEEF5E080E0D81391C01092ED054D
:100C30008091ED05CC0FC82BC093ED058091EC059C
:100C4000813009F088C01092EC050E942A056B01E2
:100C50007C018091ED058093BB00809114069091FA
:100C60001506A0911606B0911706892B8A2B8B2B9F
:100C7000A1F00E942A0500911406109115062091FA
:100C80001606309117066C197D098E099F09061703
:100C900017072807390708F442C08091BC0083FD7C
:100CA000D8CF85EC8093BC000E942A056B017C01A3
:100CB00080911206823009F450C0809110068F3F57
:100CC00009F46FC080911006803209F46CC08091E5
:100CD0001006803309F469C084E026C080911406B0
:100CE00090911506A0911606B0911706892B8A2BB4
:100CF0008B2B09F484CF0E942A05809014069090D3
:100D00001506A0901606B09017066C197D098E097D
:100D10009F0986169706A806B90608F070CF80913D
:100D200013060E94C60585E01092190610923B0634
:100D300010921806DF91CF911F910F91FF90EF90C5
:100D4000DF90CF90BF90AF909F908F9008959D912E
:100D500091938F5F69CF85EEA5CF80911406909116
:100D60001506A0911606B0911706892B8A2B8B2B9E
:100D700009F49ECF0E942A050091140610911506D1
:100D800020911606309117066C197D098E099F096E
:100D9000061717072807390708F08ACFC0CF81E068
:100DA000C3CF80E0C1CF82E0BFCF83E0BDCF089545
:100DB000E0918E0580918D05E81730F4F0E0E15761
:100DC000FA4F808190E008958FEF9FEF0895909102
:100DD0008E0580918D052FEF3FEF981748F4E92F8E
:100DE000F0E0E157FA4F208130E09F5F90938E054D
:100DF000C901089580918D0590918E05891B990BED
:100E00000895CF92DF92EF92FF920F931F93CF93AB
:100E1000DF937C01CB018A0120911806222389F0FF
:100E2000EB016B01C40ED51ECC15DD0569F069918F
:100E3000D701ED91FC910190F081E02DC70119954A
:100E4000F3CF642F0E948105C801DF91CF911F91DC
:100E50000F91FF90EF90DF90CF900895CF93DF93A5
:100E60001F92CDB7DEB76983209118062223F9F0CF
:100E700020913B06203258F021E030E0FC01338322
:100E8000228390E080E00F90DF91CF9108958091D0
:100E90001906E82FF0E0E65EF94F998190838F5FA5
:100EA0008093190680933B0681E090E0ECCF61E0EF
:100EB000CE0101960E948105F7CF2091EA0530917D
:100EC000EB052817390771F49091E8058091E90541
:100ED000981741F0E091E805F0E0E050FB4F808189
:100EE00090E008958FEF9FEF0895EF92FF920F9398
:100EF0001F93CF93DF93DC015C96ED90FC905D97A0
:100F0000E114F10479F481E090E013969C938E93C0
:100F1000129790E080E0DF91CF911F910F91FF90A9
:100F2000EF9008955196ED91FC91529750968C91C7
:100F30005097982F90950FB75E962C915E97122F31
:100F4000127021FD6095F8942081112319F1282B4E
:100F50002083E7012197F1F728E0462F50E0308108
:100F600060FF1AC0382B3083E7012197F1F7BA01EF
:100F700075956795215089F7112381F08081892328
:100F800080830FBF5C968D919C910197F1F781E072
:100F900090E0C1CF2923DCCF3923E5CF9081892B85
:100FA000EFCF0F931F93CF93DF938C01D0E0C0E07E
:100FB000F801EC0FFD1F6491662341F083E497E094
:100FC0000E947507892B11F02196F2CFCE01DF9197
:100FD000CF911F910F9108952091EA053091EB0573
:100FE0002817390771F48091E9052091E80590E010
:100FF000805C9F4F821B910960E470E00E94FE219B
:10100000089590E080E008952091EA053091EB0585
:1010100028173907B9F49091E8058091E9059817E8
:1010200089F0E091E805F0E0E050FB4F80812091ED
:10103000E80530E02F5F3F4F2F7333272093E805FB
:1010400090E008958FEF9FEF0895089590E080E07D
:101050000895CF93DF93EC0160E08E810E94CB0472
:1010600061E08E810E94CB0460E08E810E94CB04FF
:101070008BE891E00197F1F7DF91CF910895CF923E
:10108000DF92EF92FF920F931F93CF93DF936C0148
:101090007C0187E0E80EF11CD0E0C0E0062F10E0F4
:1010A000B8010C2E02C0759567950A94E2F761703D
:1010B000F70181917F010E94CB042196C430D105B4
:1010C00079F7C601DF91CF911F910F91FF90EF90BB
:1010D000DF90CF900C942908CF92DF92EF92FF928D
:1010E0000F931F93CF93DF93EC01F62E642F8C8127
:1010F0000E94CB048D818F3F19F060E00E94CB04E9
:101100000F2D10E08F8584FF25C06E0187E0C80E8B
:10111000D11CF12CE12CB8010E2C02C075956795FD
:101120000A94E2F76170F60181916F010E94CB048D
:10113000FFEFEF1AFF0A88E0E816F10461F7CE012D
:10114000DF91CF911F910F91FF90EF90DF90CF90A3
:101150000C942908B80184E0759567958A95E1F7A4
:10116000CE010E943F086F2DCE01DF91CF911F91DC
:101170000F91FF90EF90DF90CF900C943F0840E0EC
:10118000682F82E697E00C946C0881E00E94BF080B
:101190008BE39FE10197F1F70895CF93DF938FE100
:1011A0000E94A2048DE10E94A2048BE10E94A2048D
:1011B00089E10E94A20487E10E94A20481E10E94C9
:1011C000A20485E090E09093D2058093D1058FE151
:1011D0000E94A204019749F41092D2051092D10501
:1011E000F6CF9093D2058093D1058DE10E94A204A1
:1011F00081309105B1F3C2E0D0E08BE10E94A204FE
:10120000019799F0C3E0D0E089E10E94A204019720
:1012100089F0C4E0D0E087E10E94A204019779F44C
:10122000D093D205C093D105F6CFD093D205C09309
:10123000D105E3CFD093D205C093D105E5CFC091BE
:10124000D105D091D205C530D10511F00E94C50855
:10125000CE01DF91CF910895643008F063E0909162
:101260007507691710F06FEF690FE62FF0E0EE5980
:10127000F84F9489890F80680C94BF0841E00E9460
:101280006C0881E090E00895FB0101900020E9F7EF
:101290003197AF01461B570BDC01ED91FC910280A9
:1012A000F381E02D19948F929F92AF92BF92EF92AB
:1012B000FF920F931F93CF93DF93CDB7DEB7A19724
:1012C0000FB6F894DEBF0FBECDBF7C01FA01CB0193
:1012D00019A2223008F42AE08E010F5D1F4F822EE2
:1012E000912CB12CA12CBF01A50194010E941222C6
:1012F000F901CA016A300CF5605DD8016E938D0169
:10130000232B242B252B79F790E080E0109721F0F8
:10131000BD01C7010E944409A1960FB6F894DEBF33
:101320000FBECDBFDF91CF911F910F91FF90EF9036
:10133000BF90AF909F908F900895695CDECFCF9360
:10134000DF93AC01990F660B770B2AE08CE396E0F4
:101350000E945309EC016BE972E08CE396E00E9475
:1013600044098C0F9D1FDF91CF910895CF93C82F13
:101370008A3028F460E382E697E00E9400034C2F55
:1013800050E070E060E02AE082E697E0CF910C94B4
:1013900053092F923F924F925F926F927F928F925A
:1013A0009F92AF92BF92CF92DF92EF92FF921F93E4
:1013B000CF93DF93EC016A017B01722EAB019601A2
:1013C000CB01B6010E94E4216EE972E0811126C0D2
:1013D00046015701E894B7F82FEF3FEF4FE75FE77B
:1013E000C501B4010E94E42181110CC02FEF3FEF31
:1013F0004FE75FE7C501B4010E94BA1D62EA72E0DF
:10140000181664F02FEF3FEF4FE75FE4C701B60116
:101410000E9460211816B4F466EA72E0CE01DF91F2
:10142000CF911F91FF90EF90DF90CF90BF90AF9042
:101430009F908F907F906F905F904F903F902F90F4
:101440000C9444092FEF3FEF4FE75FECC701B60163
:101450000E94BA1D87FDE0CF20E030E0A901C7015E
:10146000B6010E94BA1D312C212C87FF09C06DE204
:10147000CE010E9400031C01F7FAF094F7F8F094F3
:1014800010E060E070E080E09FE3711641F020E042
:1014900030E040E251E40E941E201F5FF6CFA7011A
:1014A00096010E94201F2B013C010E9497204B01B6
:1014B0005C012AE0BC01A401CE010E9453097C0119
:1014C000E20CF31C1123C1F1C501B4010E94BF1D40
:1014D0009B01AC01C301B2010E941F1F4B015C01C3
:1014E0006EE2CE010E940003E80EF91E115020F1B9
:1014F00020E030E040E251E4C501B4010E94201E2A
:101500002B013C010E9497204B01B12CA12C2AE019
:10151000B501A401CE010E945309E80EF91EC501D0
:10152000B4010E94BF1D9B01AC01C301B2010E9426
:101530001F1F4B015C01DACFC701DF91CF911F91D3
:10154000FF90EF90DF90CF90BF90AF909F908F90E3
:101550007F906F905F904F903F902F9008950F93E2
:101560001F93CF93DF93EC010E9444098C016BE938
:1015700072E0CE010E944409800F911FDF91CF914C
:101580001F910F910895DF92EF92FF920F931F9397
:10159000CF93DF93D82E862FEA0157FF26C060E055
:1015A0000E94CB046AEA72E08CE396E00E94AF0AE4
:1015B000D195C195D10910E000E08BE1E82E8EE4D1
:1015C000F82EC017D107D9F061E08D2D0E94CB0411
:1015D000C7010197F1F760E08D2D0E94CB04C70190
:1015E0000197F1F70F5F1F4FECCF61E00E94CB0432
:1015F00065EB72E08CE396E00E94AF0ADCCFDF91EE
:10160000CF911F910F91FF90EF90DF90089561159A
:10161000710511F00C94440990E080E008954F9218
:101620005F926F927F92AF92BF92CF92DF92EF92D2
:10163000FF920F931F93CF93DF93E82E6B01EA0184
:1016400059010E94C50877247394F12CEE0CFF1CFD
:10165000C701895B9D4F7C010E94CD089093D20504
:101660008093D1058430910581F4DF91CF911F9152
:101670000F91FF90EF90DF90CF90BF90AF907F9051
:101680006F905F904F900C94C50882309105D9F50A
:1016900088819981A816B9061CF4019799838883DB
:1016A00060E080E00E942C09F7016081718182E690
:1016B00097E00E94070B61E080E00E942C0969EC32
:1016C00072E082E697E00E94070B61E08FE00E94E3
:1016D0002C096BEC72E082E697E00E94070BC114C4
:1016E000D10411F561E081E00E942C09E881F981C3
:1016F000EE0FFF1FEF5BFD4F6081718182E697E087
:101700000E94070B0FC08330910539F488819981BD
:10171000801791072CF60196C1CF7110C1CF0597A4
:1017200009F0BECF712C98CF61E091E0C916D104C9
:1017300051F481E00E942C09E881F981EE0FFF1F2E
:10174000E95CFD4FD9CF87E0E2E0CE16D10459F431
:101750000E942C098881998166EC72E0892B71F6D0
:1017600063EC72E0CBCF0E942C0948805980052C95
:10177000000C660877082AE0B301A20177FE0DC0CD
:101780006DE282E697E00E94000344275527BA01E4
:1017900044195509660977092AE082E697E00E9414
:1017A00053096CED72E0AACF0F931F93CF93DF9391
:1017B000EC0188819981009759F02A813B81261795
:1017C000370730F081E0DF91CF911F910F9108959D
:1017D0008B016F5F7F4F0E949B23009759F0998385
:1017E00088831B830A832C813D81232B59F7FC01BD
:1017F0001082E8CF80E0E7CF85ED8093BC00809138
:10180000140690911506A0911606B091170607963A
:10181000A11DB11D23E0B695A795979587952A95AB
:10182000D1F72091BC0024FD03C010921206089548
:101830004091140650911506609116067091170696
:10184000452B462B472B69F30097A105B10541F0C5
:1018500025E32A95F1F700000197A109B109E1CF2D
:10186000809113060C94C6054F925F926F927F92FF
:101870008F929F92AF92BF92CF92DF92EF92FF92A0
:101880000F931F93CF93DF93CDB7DEB76C970FB64F
:10189000F894DEBF0FBECDBF29013A01E982FA827A
:1018A0000B831C83A98EBA8ECB8EDC8E84019B01A8
:1018B000AC0160E070E084EB92E40E941F1F25E31E
:1018C0003AEF4EE85CE30E94201E6B017C010E940F
:1018D0001920698B7A8B8B8B9C8BC701B6010E9478
:1018E0006D216D837E838F839887A301920160E0D1
:1018F00070E087E893E40E941F1F25E33AEF4EE86B
:101900005CE30E94201E6B017C010E9419204B01A8
:101910005C01C701B6010E946D216D877E878F87AC
:10192000988B25E33AEF4EE85CE369817A818B81FD
:101930009C810E94201E6B017C010E9419206D8BEE
:101940007E8B8F8B988FC701B6010E946D212B0172
:101950003C0125E33AEF4EE85CE3698D7A8D8B8D8F
:101960009C8D0E94201E6B017C010E9419206983BE
:101970007A838B839C83C701B6010E946D216B0122
:101980007C012D813E814F815885C501B4010E94A3
:10199000201E4B015C01A301920169817A818B8138
:1019A0009C810E94201E9B01AC01C501B4010E94D4
:1019B000201F69837A838B839C832D813E814F8195
:1019C00058856D857E858F8598890E94201E4B01E4
:1019D0005C01A3019201C701B6010E94201E9B0178
:1019E000AC01C501B4010E94201F6B017C012D894F
:1019F0003E894F89588D69897A898B899C890E9493
:101A0000201F4B015C0129813A814B815C81CA0115
:101A1000B9010E94201E2B013C01A7019601C701BC
:101A2000B6010E94201E9B01AC01C301B2010E94BD
:101A3000201F2B013C01A5019401C501B4010E94A6
:101A4000201E9B01AC01C301B2010E94201F0E9415
:101A50007B212B013C0127E73CEC4BE252EB0E943F
:101A6000602118160CF051C027E73CEC4BE252E322
:101A7000C301B2010E94BA1D87FF47C08FE69CE6F2
:101A80000E949F0920E030E0A90169817A818B8161
:101A90009C810E94BA1D811108C08DEB97E3A6E8D6
:101AA000B5E389839A83AB83BC8329813A814B81D7
:101AB0005C81C701B6010E94BA1F0130110551F0C7
:101AC00020EE3EE245E652E40E94201E69877A87B6
:101AD0008B879C8769857A858B859C856C960FB6EC
:101AE000F894DEBF0FBECDBFDF91CF911F910F9154
:101AF000FF90EF90DF90CF90BF90AF909F908F902E
:101B00007F906F905F904F900895A3019201C5015F
:101B1000B4010E941E200E940E1F20EE3EE245E608
:101B200052E40E94201E69877A878B879C87AACF00
:101B30000F931F93CF93DF9308ED15E0D0E0C0E043
:101B4000F80161918F01CE010E94E61E2196C031FD
:101B5000D105B1F7DF91CF911F910F9108950F93A8
:101B60001F93CF93DF9308ED15E0D0E0C0E0CE01E6
:101B70000E94DE1EF80181938F012196C031D105AC
:101B8000B1F78091D8059091D9058935910591F1EA
:101B900089E590E09093D9058093D80581E090E0A5
:101BA0009093DB058093DA052AE530E03093DD057C
:101BB0002093DC0524EB30E03093DF052093DE0535
:101BC0009093E1058093E00587E090E09093E30532
:101BD0008093E20583E190E09093E5058093E4052E
:101BE0001092E7051092E605DF91CF911F910F91BA
:101BF0000C94980DDF91CF911F910F9108951F9232
:101C00000F920FB60F9211240BB60F922F933F93A2
:101C10004F935F936F937F938F939F93AF93BF93F4
:101C2000EF93FF938CE396E00E947B03FF91EF918B
:101C3000BF91AF919F918F917F916F915F914F91E4
:101C40003F912F910F900BBE0F900FBE0F901F90E2
:101C500018951F920F920FB60F9211240BB60F9288
:101C60002F938F939F93EF93FF93E0914C06F09106
:101C70004D068081E0915206F091530682FD1DC011
:101C80009081809155068F5F8F7320915606821741
:101C900041F0E0915506F0E0E45CF94F958F8093B8
:101CA0005506FF91EF919F918F912F910F900BBE51
:101CB0000F900FBE0F901F9018958081F2CF1F924A
:101CC0000F920FB60F9211242F933F938F939F93F0
:101CD000AF93BF938091AF059091B005A091B105EE
:101CE000B091B2053091840523E0230F2D3758F5CC
:101CF0000196A11DB11D209384058093AF0590939B
:101D0000B005A093B105B093B2058091850590917F
:101D10008605A0918705B09188050196A11DB11D8A
:101D20008093850590938605A0938705B0938805D9
:101D3000BF91AF919F918F913F912F910F900FBEC7
:101D40000F901F90189526E8230F0296A11DB11D34
:101D5000D2CF1F920F920FB60F9211240BB60F9293
:101D60002F933F934F935F936F937F938F939F93A3
:101D7000AF93BF93EF93FF938091B900887F803634
:101D800009F44DC008F040C0883209F4A9C028F514
:101D9000803109F49DC0C8F4882309F4FBC0883061
:101DA00009F496C0FF91EF91BF91AF919F918F91F0
:101DB0007F916F915F914F913F912F910F900BBE4B
:101DC0000F900FBE0F901F901895883109F488C0AE
:101DD000803241F78093100614C0803409F49DC00E
:101DE00040F48033B9F38833E9F68093100685EC2C
:101DF000B0C0803509F485C0883509F496C08834B0
:101E000089F60E94FC0BCECF883909F48CC038F5D6
:101E1000883729F050F4883611F0803719F683E0BE
:101E2000809312061092830557C0883809F47BC04E
:101E3000803919F0803809F0B5CF80918305803260
:101E400008F071C0E091830581E08E0F80938305D7
:101E50008091BB00F0E0ED59FA4F80833DC0803B9C
:101E600039F0E0F4803A09F479C0883A09F09ACF61
:101E700084E0809312061092620510926105E09151
:101E80008B05F0918C0519958091610581110FC02A
:101E900081E0809361051092410509C0803C09F4FE
:101EA000A6CF883C09F4A3CF883B09F07BCFE09113
:101EB000620581E08E0F80936205F0E0EF5BFA4FE0
:101EC00080818093BB00909162058091610529C05B
:101ED0008091ED058093BB0085EC8093BC0062CFC0
:101EE00090910F0680910E06981758F5E0910F0615
:101EF00081E08E0F80930F06F0E0E251FA4F80816F
:101F0000E9CFE0910F0681E08E0F80930F0680915C
:101F1000BB00F0E0E251FA4F808390910F06809170
:101F20000E069817C8F285E8D8CFE0910F0681E039
:101F30008E0F80930F068091BB00F0E0E251FA4FC4
:101F400080838091110681115CCF81E08093EC0544
:101F500084EA8093BC001092120624CF85EC809313
:101F6000BC001092120680918305803230F4E0911B
:101F70008305F0E0ED59FA4F10826091830570E01F
:101F8000E0918905F0918A0583E695E01995109214
:101F9000830508CF1092100634CF1F920F920FB610
:101FA0000F9211240BB60F922F933F934F935F9391
:101FB0006F937F938F939F93AF93BF93EF93FF9311
:101FC000E091EA05F091EB05309749F0A685B785D9
:101FD0008585968D91FF16C09C918923B1F4FF9160
:101FE000EF91BF91AF919F918F917F916F915F9191
:101FF0004F913F912F910F900BBE0F900FBE0F90FE
:102000001F9018959C91892351F7A389B4899C91BD
:102010008589809589238C93868997890197F1F723
:10202000608D718DA685B785558538E020E0CB01A0
:102030000197F1F7822F90E095958795282F4C9185
:10204000452309F02068315091F7868D81FD209558
:102050008091E90590E001968F7399273091E8050A
:10206000381799F0A091E905B0E0A050BB4F2C9330
:102070008093E905828D938D0197F1F7A389B48947
:102080008C919589892B8C93AACF868D8160868FC0
:10209000F1CFCF93DF9310923F0610923E0688EE69
:1020A00093E0A0E0B0E08093400690934106A093B7
:1020B0004206B09343062DE532E030933D0620936F
:1020C0003C0625EC30E0309349062093480624EC8A
:1020D00030E030934B0620934A0620EC30E03093FA
:1020E0004D0620934C0621EC30E030934F062093B0
:1020F0004E0622EC30E0309351062093500626EC39
:1021000030E03093530620935206109255061092F9
:10211000560610925706109258061092DC0610923E
:10212000DB068093DD069093DE06A093DF06B09376
:10213000E0068FE692E09093DA068093D90610923B
:1021400065071092640783E992E090936307809398
:1021500062078FE2809366078FEF809367078BE2B9
:102160008093680789E28093690787E280936A0712
:1021700085E280936B0783E280936C0710926D0772
:1021800010926E0710926F071092700710927107ED
:1021900081E0809375071092760780E4809377073B
:1021A00080E18093780780E58093790761E08FE292
:1021B0000E94F904809167078F3F19F061E00E9447
:1021C000F90461E0809168070E94F904C2E6D7E053
:1021D0009E01225637408091710784FF0BC088E032
:1021E00090E021962817390744F461E08E810E941F
:1021F000F904EECF84E090E0F4CF8BE39DE001970B
:10220000F1F760E0809166070E94CB0460E0809166
:1022100068070E94CB04809167078F3F19F060E048
:102220000E94CB048091710784FDBCC063E082E60C
:1022300097E00E943F08CBE4D6E4CE010197F1F786
:1022400063E082E697E00E943F082197F1F763E0A0
:1022500082E697E00E943F0883E592E00197F1F75C
:1022600062E082E697E00E943F08809171078062F9
:102270000E94BF0884E0809372078CE00E94BF0830
:102280000E94C50882E08093730786E00E94BF0821
:10229000109246071092450788EE93E0A0E0B0E068
:1022A0008093470790934807A0934907B0934A0744
:1022B00081E892E0909344078093430710925A0775
:1022C0001092590710925C0710925B0710925E07FC
:1022D00010925D071092600710925F07609161078E
:1022E0006E7F6D7F609361076695617081E06827FE
:1022F00080E00E94CB0461E080E00E94F904E0E508
:10230000F3E0E491E0935307EAE0F3E0E491F0E0D6
:10231000EE0FFF1FE051FD4F85919491909355076B
:102320008093540760E081E00E94F9048091610786
:1023300081FD04C061E081E00E94CB0481E08093D4
:102340004F07E1E5F3E0E491E0935007EBE0F3E0C1
:10235000E491F0E0EE0FFF1FEA52FD4F859194915A
:1023600090935207809351071092EA061092E90663
:102370001092E8061092E506EBECF2E081E08C307A
:1023800049F09491823009F49F5F21E0280F319643
:102390009923F1F08093E60681E08093E706DF91D0
:1023A000CF91089580620E94BF088BE496E4019764
:1023B000F1F78091710780620E94BF0883E592E087
:1023C0000197F1F78091710780620E94BF084DCF9D
:1023D000822FD5CFCF93DF93CDB7DEB7CC54D109C1
:1023E0000FB6F894DEBF0FBECDBF789484B582607F
:1023F00084BD84B5816084BD85B5826085BD85B5A9
:10240000816085BD80916E00816080936E00109226
:1024100081008091810082608093810080918100A1
:102420008160809381008091800081608093800032
:102430008091B10084608093B1008091B000816090
:102440008093B00080919100826080939100809190
:1024500091008160809391008091900081608093D1
:1024600090008091A10082608093A1008091A100E2
:1024700081608093A1008091A00081608093A00082
:1024800080912101826080932101809121018160EE
:1024900080932101809120018160809320018091AF
:1024A0007A00846080937A0080917A0082608093C1
:1024B0007A0080917A00816080937A0080917A001E
:1024C000806880937A001092C100E0914C06F091F0
:1024D0004D0682E08083E0914806F0914906108223
:1024E000E0914A06F0914B068FEC808310925406DF
:1024F000E0915006F091510686E08083E0914E060F
:10250000F0914F06808180618083E0914E06F091CA
:102510004F06808188608083E0914E06F0914F06DF
:10252000808180688083E0914E06F0914F06808123
:102530008F7D808380E390E30E949F0960E875E2CD
:1025400080E090E00E9400026EED72E08CE396E085
:102550000E94AF0A61E081E20E94F90461E086E333
:102560000E94F90461E087E30E94F90461E086E2D9
:102570000E94F90461E08CE30E94F90461E08DE3BC
:102580000E94F90461E088E30E94F90460E08FE1B1
:102590000E94F90460E08DE10E94F90460E08BE1A3
:1025A0000E94F90460E089E10E94F90460E087E19B
:1025B0000E94F90460E081E10E94F90461E081E297
:1025C0000E94CB0460EA7FE080E090E00E944F052B
:1025D00060E081E20E94CB0410928E0510928D057E
:1025E0001092190610923B060E94A8058EEF92E009
:1025F00090938C0580938B058FEF92E090938A05E2
:102600008093890581E08093180688E680933A06D6
:1026100081E00E94E7058111AFC00E94AF0D80E309
:10262000E7E0F2E0DE01119601900D928A95E1F764
:102630009E012F5F3F4F79015E0131E3A30EB11C74
:10264000D7014D905D906D907D907D01C301B201E9
:102650000E9400026AE070E080E090E00E944F0576
:1026600081EC92E00E94D1072AE0B301A20183E449
:1026700097E00E9453096BE972E083E497E00E94BF
:1026800044091AAA19AA1CAA1BAA1EAA1DAA70E00C
:1026900060E0C5010E94D40B29A93AA9811173C039
:1026A0002115310519F0C9010E9412231AAA19AA8D
:1026B0001EAA1DAA1CAA1BAA6DE073E083E497E082
:1026C0000E94070B67E173E083E497E00E94AF0A82
:1026D00067E173E083E497E00E94070B8FB7F894FB
:1026E0004090AF055090B0056090B1057090B20574
:1026F0008FBF86EB92E00E94D1072FB7F8948091AC
:10270000AF059091B005A091B105B091B2052FBF72
:1027100084199509A609B709803D9740A105B1051F
:10272000D0F583E497E00E94EC07892B31F383E432
:1027300097E00E940408182F682F83E497E00E9416
:1027400075071FAB18AECDA8DEA8FFEFCF1ADF0AC2
:10275000B601C5010E94D40B882379F229A93AA9B0
:102760008DA99EA9BE01695C7F4F820F931F0E94B5
:102770008524DEAACDAAC1CF63EF72E08CE396E098
:102780000E94AF0AFFCF1EAA1DAA6DE972E0C9011F
:102790000E94852491CF6BE972E083E497E00E9468
:1027A000440989A99AA9009711F00E941223AE1436
:1027B000BF0409F045CF68EB7BE080E090E00E9429
:1027C0004F058CE396E00E94650318161906CCF4B9
:1027D0008CE396E00E944303809300026AE173E079
:1027E0008CE396E00E94070B609100028CE396E078
:1027F0000E9400036BE972E08CE396E00E944409BA
:10280000E0CF83E497E00E94EC07181619065CF409
:1028100083E497E00E94040880930002682F8CE311
:1028200096E00E949D0383E497E00E94EC07892BC9
:1028300061F06EE173E08CE396E00E94AF0A83E4FE
:1028400097E00E940408809300028091000268E2F1
:1028500073E08134A1F16FE273E0813681F166E3C8
:1028600073E0823661F16CE373E0833641F161E439
:1028700073E0843621F167E473E0853601F16DE49D
:1028800073E08833E1F065E573E08233C1F068E816
:1028900073E08433A1F068E973E0863381F06EE57C
:1028A00073E0873361F06DE673E0893341F06DE7E3
:1028B00073E0813321F0833331F46DE873E08CE30E
:1028C00096E00E94AF0A81E08093180688E6809324
:1028D0003A061092190610923B0660E089ED96E0E8
:1028E0000E942E0781E00E94E7050E942A056B01E5
:1028F0007C0180911206811165C081E080931206EF
:10290000809311069FEF9093100610920F0696E0A9
:1029100090930E068093ED058091ED05806D809378
:10292000ED058091EC05813009F053C11092EC0562
:102930000E942A056B017C018091ED058093BB000C
:102940008091140690911506A0911606B091170675
:10295000892B8A2B8B2BA1F00E942A0580901406CC
:1029600090901506A0901606B09017066C197D0978
:102970008E099F0986169706A806B90608F443C073
:102980008091BC0083FDD8CF85EC8093BC000E9471
:102990002A056B017C0180911206813009F41BC16C
:1029A00080910F06873008F038C180910F06AEEE97
:1029B000B5E0EFE8F5E090E0981751F12D91219303
:1029C0009F5FFACF8091140690911506A09116068C
:1029D000B0911706892B8A2B8B2B09F48ACF0E9482
:1029E0002A058090140690901506A0901606B090C7
:1029F00017066C197D098E099F0986169706A80689
:102A0000B90608F076CF809113060E94C60580E0D3
:102A100010928E0580938D0589ED96E00E94E70661
:102A20008F77282F30E094E0359527959A95E1F738
:102A3000922F990F990FE22EE91AEE0CE80E89ED0C
:102A400096E00E94E7069C0144E0359527954A955B
:102A5000E1F72F703327922F990F990FD22ED91AA1
:102A6000DD0CD80E89ED96E00E94E7069C0154E04B
:102A7000359527955A95E1F72F703327922F990FA7
:102A8000990FF22EF91AFF0CF80E89ED96E00E94CC
:102A9000E70689ED96E00E94E7069C0164E0359523
:102AA00027956A95E1F72F703327922F990F990F89
:102AB000C22EC91ACC0CC80E89ED96E00E94E7061A
:102AC0009C0174E0359527957A95E1F72F703327AF
:102AD000922F990F990FB22EB91ABB0CB80E89ED2F
:102AE00096E00E94E7069C01E4E035952795EA957B
:102AF000E1F72F703327922F990F990F291B220F7F
:102B0000820F8093E506B092E606C092E706F09247
:102B1000E806D092E906E092EA068F2D90E0209137
:102B2000E2053091E305821793070CF478C02091F9
:102B3000E4053091E505281739070CF470C081E0F1
:102B40008093D7052FB7F8948091AF059091B00589
:102B5000A091B105B091B2052FBF8093D30590939A
:102B6000D405A093D505B093D6050E94CD089093C7
:102B7000D2058093D105049709F0FFC00E94C508D3
:102B800011E0D12C0E94CD089093D2058093D105FD
:102B90008230910509F046C0DD2009F470C0DA9456
:102BA00041E04D1508F06BC053E05D1508F07FC0A3
:102BB00085E08D1508F093C097E09D1508F0A7C03B
:102BC000A9E085E090E0AD1508F0A3C0F12CE12C60
:102BD000A4C085EEDACE8091140690911506A091DE
:102BE0001606B0911706892B8A2B8B2B09F4D3CEAE
:102BF0000E942A058090140690901506A090160653
:102C0000B09017066C197D098E099F0986169706E4
:102C1000A806B90608F0BFCEF6CE87E0C8CE10925F
:102C2000D70590CF8330910531F427E02D1508F4B6
:102C3000B7CFD394B5CF8430910509F037C538E0CC
:102C40003D1508F4B1CFED2DF0E08827E55DF94E94
:102C50008F4F0C945322341642164C165A16641693
:102C600072167C16B916531B02E010E030E020E02B
:102C70004AED55E070E060E080E00E940F0B81E0DB
:102C800090E047C008E611E030E020E04CED55E070
:102C900063E070E081E0F1CF04EB10E02EE130E082
:102CA0004EED55E063E070E082E00E940F0B82E0A1
:102CB00090E02FC001E010E030E020E040EE55E071
:102CC00062E070E083E0F1CF07E110E030E020E067
:102CD00042EE55E063E070E084E00E940F0B83E079
:102CE00090E017C007E110E030E020E044EE55E04E
:102CF00063E070E085E0F1CF04E010E030E020E038
:102D000046EE55E061E070E086E00E940F0B84E043
:102D100090E001977C01EE0CFF1C3701660C771CDC
:102D2000912C812C12E0A12EAE0CB12CEA14FB04E4
:102D30000CF4C3C460E080E00E942C096CED72E0EA
:102D400082E697E00E94070B61E080E00E942C0978
:102D50006CED72E082E697E00E94070B6D2D6170CA
:102D600080E00E942C0960E082E697E00E943E0924
:102D7000A2C40E94980D0E94C5086091D30570916D
:102D8000D4058091D5059091D605C090CD05D09001
:102D9000CE05E090CF05F090D0059B01AC012C1939
:102DA0003D094E095F0969017A0138EEC31633E027
:102DB000D306E104F10470F16093CD057093CE0564
:102DC0008093CF059093D0052091E0053091E105E7
:102DD0002130310591F42091E6053091E70522304C
:102DE000310509F4E7C40CF086C42115310509F456
:102DF00094C42130310509F4C9C48091D70561E03C
:102E00008111F8C40E942C0966EB73E082E697E01A
:102E10000E94070B8091D705882309F43BC4B0902A
:102E2000E7061091E606C090E506D12C40E3C41AEF
:102E300048EFD40A6091EA0670E090E080E00E94DA
:102E4000BF1D20E030E040E752E40E941E202B012D
:102E50003C016091E90670E090E080E00E94BF1DB7
:102E60009B01AC01C301B2010E94201F20E030E0B1
:102E700040E752E40E941E202B013C016091E806CD
:102E800070E090E080E00E94BF1D9B01AC01C30197
:102E9000B2010E94201F21966CAF7DAF8EAF9FAF15
:102EA00021976093EF067093F0068093F10690935C
:102EB000F2068EE090E0811B91096CE070E00E94C8
:102EC000FE21F12CE12CCB01072E000CAA0BBB0B31
:102ED000C81AD90AEA0AFB0A2CE030E0DB010E949A
:102EE0005B229B01AC01210F311D411D511D23505F
:102EF000310941095109A9E9B0E00E94F41E6E5F51
:102F00007F4F8F4F9F4F25E030E040E050E00E9420
:102F10003422DA01C9018B0D911DA11DB11D4C0197
:102F20005D01ADE6B1E0A70196010E94F41E680DB7
:102F3000791D8A1D9B1DF2E0F594E794D794C79400
:102F4000FA95D1F76C0D7D1D8E1D9F1D655C7F4F21
:102F50008F4F9F4F0E94C11D20E030E040E05FE3B3
:102F60000E941F1F6B017C0120E030E040EC51E427
:102F700021966CAD7DAD8EAD9FAD21970E941E2038
:102F80009B01AC01C701B6010E94201F69AF7AAF57
:102F90008BAF9CAF6093EB067093EC068093ED06CD
:102FA0009093EE0628E73EE348E85AE30E94201E8D
:102FB0009B01AC0166E475E289E090E40E941F1F6A
:102FC0004B015C0180920F0790921007A0921107AD
:102FD000B09212072EED3CEE4CE85CE369AD7AADA1
:102FE0008BAD9CAD0E94201E2BE534EA4CE950E4E9
:102FF0000E94201F2B013C014092070750920807B6
:103000006092090770920A0725E23BEE4CE85CE308
:1030100069AD7AAD8BAD9CAD0E94201E22E93EEADF
:1030200047EC50E40E94201F6B017C01C0920B070B
:10303000D0920C07E0920D07F0920E070E946D21CE
:1030400025966CAF7DAF8EAF9FAF2597A7019601F8
:10305000C701B6010E94201F0E946D2129966CAF06
:103060007DAF8EAF9FAF2997C501B4010E946D213E
:103070002D966CAF7DAF8EAF9FAF2D972AE43FEDBD
:1030800048E05DE325966CAD7DAD8EAD9FAD259797
:103090000E94201EA30192010E94201F6B017C014F
:1030A0002FEE31EF46EB59E329966CAD7DAD8EAD39
:1030B0009FAD29970E94201E9B01AC01C701B6015C
:1030C0000E94201F29E231ED4DEE58E30E941F1FA0
:1030D0006B017C012BEE39E44AEA57E32D966CAD87
:1030E0007DAD8EAD9FAD2D970E94201E9B01AC0142
:1030F000C701B6010E941F1F2B013C014092F3063D
:103100005092F4066092F5067092F606C501B4017D
:103110000E9419204B015C012CEE32E845ED51E391
:1031200069AD7AAD8BAD9CAD0E94201E9B01AC01B8
:103130006DE974E781ED9EE30E941F1F6B017C0126
:103140002DE238E146E258E3C501B4010E94201E99
:103150009B01AC01C701B6010E94201F4B015C011D
:103160008092F7069092F806A092F906B092FA06BD
:10317000C301B2010E946D216B017C01C092030763
:10318000D0920407E0920507F0920607C501B4014A
:103190000E94192025966CAF7DAF8EAF9FAF25970B
:1031A000C301B2010E9419202B013C0125962CADD0
:1031B0003DAD4EAD5FAD2597C701B6010E94201E03
:1031C000A30192010E94BA1F2B013C0120E030E0D4
:1031D000A9010E94BA1D87FD3DC34092FB06509293
:1031E000FC066092FD067092FE06C501B4010E94C5
:1031F0006D219B01AC01C701B6010E94201E0E94F7
:103200008C1F6B017C01C092FF06D0920007E092F8
:103210000107F092020720EE32E946E85DE369AD6E
:103220007AAD8BAD9CAD0E94201E2DE431E546EDBC
:1032300050E40E94201F21962CAD3DAD4EAD5FADF8
:1032400021970E94201F60931307709314078093A7
:1032500015079093160720E030E040E751E40E9404
:10326000201E29E233E24AE052E40E941F1F25E3B8
:103270003AEF4EE85CE30E94201E609317077093BC
:1032800018078093190790931A072091FB06309135
:10329000FC064091FD065091FE060E941F1F2B0167
:1032A0003C014092230750922407609225077092B8
:1032B000260788E49FEAA2E8BFEB80931F0790935C
:1032C0002007A0932107B093220785EE94ECA5E098
:1032D000BFE38093270790932807A0932907B09313
:1032E0002A0783E295E4AAE5BFEB80932B0790932E
:1032F0002C07A0932D07B0932E07C301B2010E94A3
:1033000019204B015C0180922F0790923007A09208
:103310003107B0923207C701B6010E94192069AF88
:103320007AAF8BAF9CAFC701B6010E946D21219689
:103330006CAF7DAF8EAF9FAF219725EE34EC45E0AB
:103340005FE3C501B4010E94201E29AD3AAD4BAD2B
:103350005CAD0E94201E69AF7AAF8BAF9CAF23E2B9
:1033600035E44AE55FEB21966CAD7DAD8EAD9FAD4A
:1033700021970E94201E9B01AC0169AD7AAD8BADF7
:103380009CAD0E94201F0E940E1F69AF7AAF8BAFC9
:103390009CAFC301B2010E946D212B013C01C7010A
:1033A000B6010E94BF2125EE34EC45E05FE30E94A8
:1033B000201E6B017C0123E235E44AE55FEBC50189
:1033C000B4010E94201E9B01AC01C701B6010E94FE
:1033D0001F1F9B01AC01C301B20190580E94BA1F8C
:1033E0006B017C0120E030E0A9010E94BA1D87FD3D
:1033F00042C2C0923707D0923807E0923907F09264
:103400003A0725E33AEF4EE85CE3609137077091A5
:1034100038078091390790913A070E941E202B01AE
:103420003C014092370750923807609239077092FA
:103430003A0769AD7AAD8BAD9CAD0E946D212DE050
:1034400030EA42E358E30E94201E9B01AC01209326
:10345000330730933407409335075093360769ADEF
:103460007AAD8BAD9CAD0E94201F25E33AEF4EE86C
:103470005CE30E941E209B01AC0120933B0730932C
:103480003C0740933D0750933E0760E070E084EBBB
:1034900092E40E941F1F60933F0770934007809340
:1034A0004107909342074092C1055092C205609235
:1034B000C3057092C4056093BD057093BE058093EB
:1034C000BF059093C0052091DA053091DB052130CE
:1034D000310509F4E1C12230310509F4A7C2232BDB
:1034E00009F0D8C06CEC73E08CE396E00E94AF0A60
:1034F0008090BB059090BC059092BA058092B9056A
:10350000A090B705B090B805B092B605A092B505E9
:103510002091C1053091C2054091C3055091C40569
:1035200060E070E087E893E40E941F1F6B017C015C
:10353000C092C905D092CA05E092CB05F092CC05A5
:103540002091BD053091BE054091BF055091C00549
:1035500060E070E084EB92E40E941F1F2B013C01AD
:103560004092C5055092C6056092C7057092C80585
:1035700020E030E048E453E4C701B6010E94201E79
:1035800020E030E044EB53E40E941E200E94902093
:103590006B017093BC056093BB0520E030E048E40C
:1035A00053E4C301B2010E94201E20E030E044EB4E
:1035B00053E40E941E200E9490207093B8056093EF
:1035C000B705A601481959096A197B097093B40512
:1035D0006093B305443151055CF167E370E086E325
:1035E00090E00E94C30A6CED72E08CE396E00E94CA
:1035F000AF0A6EED73E08CE396E00E94070B4091FA
:10360000C9055091CA056091CB057091CC0522E0A7
:103610008CE396E00E94C9096BE972E08CE396E0C6
:103620000E94440968EE73E080E090E00E944F053C
:103630004091B3055091B405443151055CF16DE3FF
:1036400070E08CE390E00E94C30A62EF73E08CE3C9
:1036500096E00E94070B4091C5055091C605609108
:10366000C7057091C80522E08CE396E00E94C90965
:103670006BE972E08CE396E00E9444096CED72E025
:103680008CE396E00E94AF0A68EE73E080E090E081
:103690000E944F0564E670E080E090E00E944F05D4
:1036A0000E940A048EC80E94AF0D65CB111178CA22
:1036B000059709F075CA10E065CA682D81E00E947F
:1036C0002C096DEC72E0B9E0EB16F10449F0F4015D
:1036D000EE0FFF1FE60DF71DE95BFD4F6081718165
:1036E00082E697E00E94070BEFEFEE1AFE0AFFEF6B
:1036F0008F1A9F0A1BCB2330310509F46BC024308D
:10370000310509F07ACB2AE0AB01BC0182E697E0F3
:103710000E94530961EB73E048C060E080E00E94C2
:103720002C098091E7060E94B6096EE973E082E6F3
:1037300097E00E94070B8091E6060E94B6096EE9A9
:1037400073E082E697E00E94070B4091E50650E0A7
:103750004053584F70E060E02AE082E697E00E9414
:1037600053096CED72E082E697E00E94070B8091AE
:10377000E8060E94B60960EA73E082E697E00E94DC
:10378000070B8091E9060E94B60937CB20E83EEE90
:1037900046E350E00E941222BA01A9012AE082E623
:1037A00097E00E94530962EA73E082E697E00E9484
:1037B000070B23CB20E63AEE40E050E00E941222B5
:1037C000BA01A9012AE082E697E00E94530967EA5C
:1037D00073E0EBCF28EE33E040E050E00E9412228D
:1037E000BA01A9012AE082E697E00E9453096CEA37
:1037F00073E0DBCF80E00E942C0966EC73E082E688
:1038000097E00E94070B4091C9055091CA0560914D
:10381000CB057091CC0522E082E697E00E94C909B1
:103820006CED72E082E697E00E94070B69EC73E0B2
:1038300082E697E00E94070B4091C5055091C605AE
:103840006091C7057091C80522E082E697E00E946A
:10385000C909E0CA2BED3FE049EC50E4C301B201D5
:103860000E94201F6093FB067093FC068093FD0668
:103870009093FE06BACC2BED3FE049EC50E4C70133
:10388000B6010E94201F609337077093380780931A
:10389000390790933A07B5CD2091BB053091BC050F
:1038A0003093BA052093B9052091B7053091B8053A
:1038B0003093B6052093B50522E0822E912CA12CE1
:1038C000B12C34EBC32E32E4D32E86017501A30153
:1038D00092010E94340C6093C9057093CA058093CD
:1038E000CB059093CC052091C1053091C205409144
:1038F000C3055091C4056091BD057091BE058091CE
:10390000BF059091C00588248394912C0E94340CAB
:103910004B015C018092C5059092C605A092C70537
:10392000B092C80520E030E048E453E46091C90556
:103930007091CA058091CB059091CC050E94201E04
:1039400020E030E044EB53E40E941E200E949020CF
:103950006B017093BC056093BB0520E030E048E448
:1039600053E4C501B4010E94201E20E030E044EB86
:1039700053E40E941E200E9490207093B80560932B
:10398000B7052091B9053091BA05A601421B530B2A
:103990002091B5053091B605621B730B7093B40589
:1039A0006093B30544315105FCF067E370E086E3B2
:1039B00090E00E94C30A68E074E08CE396E00E9405
:1039C000070B4091C9055091CA056091CB057091D4
:1039D000CC0522E08CE396E00E94C90968EE73E012
:1039E00080E090E00E944F054091B3055091B405EE
:1039F000443151050CF44ECE6DE370E08CE390E061
:103A00000E94C30A6DE174E08CE396E00E94070B0C
:103A10004091C5055091C6056091C7057091C805D4
:103A200022E08CE396E00E94C90928CE8090BB0575
:103A30009090BC059092BA058092B905A090B70508
:103A4000B090B805B092B605A092B5056091DC05BE
:103A50007091DD05072E000C880B990B0E94C11D8B
:103A60006B017C01C092C905D092CA05E092CB05DA
:103A7000F092CC056091DE057091DF05072E000CF9
:103A8000880B990B0E94C11D2B013C014092C5057A
:103A90005092C6056092C7057092C80520E030E0DC
:103AA00048E453E4C701B6010E94201E20E030E044
:103AB00044EB53E40E941E200E9490206B017093FF
:103AC000BC056093BB0520E030E048E453E4C3014B
:103AD000B2010E94201E20E030E044EB53E40E943B
:103AE0001E200E9490207093B8056093B705A60130
:103AF000481959096A197B097093B4056093B30595
:103B00004230510564F067E370E086E390E00E9484
:103B1000C30A68EE73E080E090E00E944F05409198
:103B2000B3055091B405423051050CF4B3CD6DE3AB
:103B300070E08CE390E00E94C30AA6CD81E892E099
:103B400090934407809343078091EA059091EB0599
:103B50008354974071F4E0915607F0915707908194
:103B6000809158078095892380831092EB051092ED
:103B7000EA0508950E94FC1D08F481E00895E89488
:103B800009C097FB3EF490958095709561957F4FA5
:103B90008F4F9F4F9923A9F0F92F96E9BB27939553
:103BA000F695879577956795B795F111F8CFFAF463
:103BB000BB0F11F460FF1BC06F5F7F4F8F4F9F4F94
:103BC00016C0882311F096E911C0772321F09EE8F2
:103BD000872F762F05C0662371F096E8862F70E058
:103BE00060E02AF09A95660F771F881FDAF7880F32
:103BF0009695879597F90895990F0008550FAA0B88
:103C0000E0E8FEEF16161706E807F907C0F01216EF
:103C10001306E407F50798F0621B730B840B950BF2
:103C200039F40A2661F0232B242B252B21F4089547
:103C30000A2609F4A140A6958FEF811D811D0895E4
:103C40000E94331E0C94A41E0E94961E38F00E94FF
:103C50009D1E20F0952311F00C948D1E0C94931E44
:103C600011240C94D81E0E94B51E70F3959FC1F3C9
:103C7000950F50E0551F629FF001729FBB27F00D1A
:103C8000B11D639FAA27F00DB11DAA1F649F66276F
:103C9000B00DA11D661F829F2227B00DA11D621FBE
:103CA000739FB00DA11D621F839FA00D611D221F78
:103CB000749F3327A00D611D231F849F600D211D5C
:103CC000822F762F6A2F11249F5750409AF0F1F0DF
:103CD00088234AF0EE0FFF1FBB1F661F771F881F48
:103CE00091505040A9F79E3F510580F00C948D1ED5
:103CF0000C94D81E5F3FE4F3983ED4F386957795F5
:103D00006795B795F795E7959F5FC1F7FE2B880FED
:103D1000911D9695879597F9089597F99F6780E883
:103D200070E060E008959FEF80EC089500240A940D
:103D30001616170618060906089500240A94121686
:103D40001306140605060895092E0394000C11F4B9
:103D5000882352F0BB0F40F4BF2B11F460FF04C066
:103D60006F5F7F4F8F4F9F4F089557FD9058440FBF
:103D7000551F59F05F3F71F04795880F97FB991FCA
:103D800061F09F3F79F08795089512161306140687
:103D9000551FF2CF4695F1DF08C016161706180614
:103DA000991FF1CF86957105610508940895E894EF
:103DB000BB2766277727CB0197F90895F999FECF9E
:103DC00092BD81BDF89A992780B50895262FF9995B
:103DD000FECF1FBA92BD81BD20BD0FB6F894FA9AEE
:103DE000F99A0FBE019608950E94FF1EA59F900D9F
:103DF000B49F900DA49F800D911D11240895A29F42
:103E0000B001B39FC001A39F700D811D1124911DAE
:103E1000B29F700D811D1124911D08959F939F776E
:103E20000E94C6200F90002042F49058A2EA2AED8A
:103E30003FE049E450E40E94371F0C94A41E505800
:103E4000BB27AA270E94371F0C94A41E0E94961E0F
:103E500038F00E949D1E20F039F49F3F19F426F49B
:103E60000C94931E0EF4E095E7FB0C948D1EE92F45
:103E70000E94B51E58F3BA176207730784079507A7
:103E800020F079F4A6F50C94D71E0EF4E0950B2ED5
:103E9000BA2FA02D0B01B90190010C01CA01A0019C
:103EA0001124FF27591B99F0593F50F4503E68F1F7
:103EB0001A16F040A22F232F342F4427585FF3CF38
:103EC000469537952795A795F0405395C9F77EF409
:103ED0001F16BA0B620B730B840BBAF09150A1F052
:103EE000FF0FBB1F661F771F881FC2F70EC0BA0FD8
:103EF000621F731F841F48F4879577956795B79560
:103F0000F7959E3F08F0B0CF9395880F08F099275A
:103F1000EE0F9795879508959F939F77EEE38937E6
:103F20009E0728F4E4EEF0E00E940D210CC00E94F0
:103F3000C6209058A2EA2AED3FE049EC5FE30E94D8
:103F4000371F0E94A41E0F9007FC905808950E94EE
:103F5000961E60F080E891E009F49EEF0E949D1E9D
:103F600028F040E851E071F45EEF0CC00C94931E11
:103F70000C94D71EE92FE0780E94B51E40F3092E5D
:103F8000052AB1F3261737074807590738F00E2ED0
:103F900007F8E02569F0E025E0640AC0EF6307F860
:103FA000009407FADB01B9019D01DC01CA01AD01F2
:103FB000EF930E9435200E94A41E0E94EA1F5F9189
:103FC000552339F02BED3FE049E450FD49EC0C94CA
:103FD000201F0895DF93DD27B92FBF7740E85FE307
:103FE0001616170648075B0718F4D92F0E9465219B
:103FF0009F938F937F936F930E94BB21E8EFF0E034
:104000000E94E6200E94A41E2F913F914F915F9144
:104010000E94331EDD2351F09058A2EA2AED3FE0C2
:1040200049EC5FE3D0785D270E94371FDF910C9445
:10403000A41E0E942321E3950C944C210E9432205F
:104040000C94A41E0E949D1E58F00E94961E40F0E3
:1040500029F45F3F29F00C948D1E51110C94D81E49
:104060000C94931E0E94B51E68F39923B1F3552357
:1040700091F3951B550BBB27AA276217730784077B
:1040800038F09F5F5F4F220F331F441FAA1FA9F311
:1040900035D00E2E3AF0E0E832D091505040E695FF
:1040A000001CCAF72BD0FE2F29D0660F771F881F60
:1040B000BB1F261737074807AB07B0E809F0BB0B53
:1040C000802DBF01FF2793585F4F3AF09E3F510567
:1040D00078F00C948D1E0C94D81E5F3FE4F3983E4C
:1040E000D4F3869577956795B795F7959F5FC9F750
:1040F000880F911D9695879597F90895E1E0660FD1
:10410000771F881FBB1F621773078407BA0720F049
:10411000621B730B840BBA0BEE1F88F7E0950895B2
:104120000E9497206894B1110C94D81E08950E94A3
:10413000BD1E88F09F5798F0B92F9927B751B0F05E
:10414000E1F0660F771F881F991F1AF0BA95C9F71B
:1041500014C0B13091F00E94D71EB1E008950C94C4
:10416000D71E672F782F8827B85F39F0B93FCCF377
:10417000869577956795B395D9F73EF49095809598
:10418000709561957F4F8F4F9F4F0895DF93CF9329
:104190001F930F938B01EC01E5E2F1E00E94E62012
:1041A0000E94A41E9801AE018B01EC0160E070E05A
:1041B00080E89FE30E941F1F0E947B219801AE01AF
:1041C0000F911F91CF91DF910C94331EDF93CF930A
:1041D0001F930F93FF92EF92DF927B018C01689403
:1041E00006C0DA2EEF010E94331EFE01E894A5916D
:1041F0002591359145915591A6F3EF010E94371F06
:10420000FE019701A801DA9469F7DF90EF90FF9023
:104210000F911F91CF91DF9108959F938F937F937B
:104220006F93FF93EF939B01AC010E94201EEF91CF
:10423000FF910E94E6202F913F914F915F910C9446
:10424000201E0C94931E0E94BD1ED8F3E894E0E05B
:10425000BB279F57F0F02AED3FE049EC06C0EE0F78
:10426000BB0F661F771F881F28F0B23A62077307DB
:10427000840728F0B25A620B730B840BE3959A956E
:1042800072F7803830F49A95BB0F661F771F881F2E
:10429000D2F790480C94EB21EF93E0FF07C0A2EA1D
:1042A0002AED3FE049EC5FEB0E94371F0E94A41EFD
:1042B0000F90039401FC9058EDE4F1E00C940D2173
:1042C0000E94FC1D08F48FEF08959B01AC0160E093
:1042D00070E080E89FE30C941E209F930E942321AE
:1042E0000F9007FCEE5F0C944C2119F416F40C941B
:1042F000931E0C94E9210E94BD1EB8F39923C9F3C3
:10430000B6F39F57550B87FF0E94F7210024A0E6C4
:1043100040EA900180585695979528F4805C660F86
:10432000771F881F20F026173707480730F4621BD5
:10433000730B840B202931294A2BA69517940794D7
:10434000202531254A2758F7660F771F881F20F050
:1043500026173707480730F4620B730B840B200DC8
:10436000311D411DA09581F7B901842F9158880F07
:104370009695879508959B01AC010C94201EDF93C0
:10438000D92F0E942321E695D7952AED3FE049E4F5
:104390005FE3B33A6207730784079507D7953AF04E
:1043A000A2EA49EC90680E94371F0E94A41EEBE627
:1043B000F1E00E940D21DD0F13F00E946521DD0F59
:1043C0000BF49058DF9108950E94FC1D880B990B07
:1043D00008959F3F31F0915020F487957795679528
:1043E000B795880F911D9695879597F908959150E7
:1043F0005040660F771F881FD2F7089597FB072E4E
:1044000016F4009407D077FD09D00E94622207FCC1
:1044100005D03EF4909581959F4F089570956195D4
:104420007F4F0895A1E21A2EAA1BBB1BFD010DC0F0
:10443000AA1FBB1FEE1FFF1FA217B307E407F50754
:1044400020F0A21BB30BE40BF50B661F771F881F30
:10445000991F1A9469F760957095809590959B01C6
:10446000AC01BD01CF010895052E97FB1EF4009409
:104470000E944B2257FD07D00E94122207FC03D056
:104480004EF40C944B2250954095309521953F4F1A
:104490004F4F5F4F089590958095709561957F4F30
:1044A0008F4F9F4F0895EE0FFF1F881F8BBF079000
:1044B000F691E02D19940E94FF1EB7FF0895821B0C
:1044C000930B0895AA1BBB1B51E107C0AA1FBB1F7A
:1044D000A617B70710F0A61BB70B881F991F5A9590
:1044E000A9F780959095BC01CD0108950F931F9376
:1044F000CF93DF938230910510F482E090E0E09159
:104500007C07F0917D0730E020E0B0E0A0E030973C
:1045100099F42115310509F44AC0281B390B2430C0
:104520003105D8F58A819B816115710589F1FB01FF
:1045300093838283FE0111C04081518102811381E6
:1045400048175907E0F04817590799F4109761F098
:1045500012960C93129713961C933296CF01DF910B
:10456000CF911F910F91089500937C0710937D07C1
:10457000F4CF2115310551F04217530738F0A90146
:10458000DB019A01BD01DF01F801C1CFEF01F9CFD5
:1045900090937D0780937C07CDCFFE01E20FF31F40
:1045A000819391932250310939832883D7CF209169
:1045B0007A0730917B07232B41F42091030230913D
:1045C000040230937B0720937A07209101023091F7
:1045D00002022115310541F42DB73EB74091050285
:1045E00050910602241B350BE0917A07F0917B076E
:1045F000E217F307A0F42E1B3F0B2817390778F0BA
:10460000AC014E5F5F4F2417350748F04E0F5F1F18
:1046100050937B0740937A07819391939FCFF0E06B
:10462000E0E09CCFCF93DF930097E9F0FC01329755
:1046300013821282A0917C07B0917D07ED0130E0DA
:1046400020E01097A1F420813181820F931F2091E7
:104650007A0730917B072817390709F061C0F0937A
:104660007B07E0937A07DF91CF910895EA01CE1797
:10467000DF07E8F54A815B819E0141155105B1F7DD
:10468000E901FB83EA8349915991C40FD51FEC17C7
:10469000FD0761F4808191810296840F951FE901E5
:1046A00099838883828193819B838A83F0E0E0E011
:1046B00012968D919C9113970097B9F52D913C918D
:1046C0001197CD010296820F931F20917A073091A6
:1046D0007B072817390739F6309751F510927D0777
:1046E00010927C07B0937B07A0937A07BCCFD3834B
:1046F000C28340815181840F951FC817D90761F487
:104700004E5F5F4F88819981480F591F51834083C5
:104710008A819B81938382832115310509F0B0CF73
:10472000F0937D07E0937C079ECFFD01DC01C0CFB5
:1047300013821282D7CF4F925F926F927F928F92A5
:104740009F92AF92BF92CF92DF92EF92FF920F9320
:104750001F93CF93DF938C01009799F4CB01DF91E6
:10476000CF911F910F91FF90EF90DF90CF90BF906E
:10477000AF909F908F907F906F905F904F900C9430
:104780007622FC01E60FF71F9C0122503109E21747
:10479000F30708F4AEC0D901CD91DC911197C6178B
:1047A000D70720F1C530D10578F0CE0104978617E0
:1047B000970750F0C61BD70B2297C193D1936D93E7
:1047C0007C93CF010E941223C801DF91CF911F91EA
:1047D0000F91FF90EF90DF90CF90BF90AF909F90A0
:1047E0008F907F906F905F904F9008955B01AC1A0F
:1047F000BD0A4C018C0E9D1EA0917C07B0917D07D7
:10480000512C412CF12CE12C109731F580917A0735
:1048100090917B078815990509F05CC046165706EC
:1048200008F058C08091010290910202009741F473
:104830008DB79EB74091050250910602841B950BDF
:10484000E817F90708F055C0F0937B07E0937A0763
:10485000F90171836083B8CF8D919C911197129665
:104860006C90129713967C901397A815B90559F57B
:104870006C0142E0C40ED11CCA14DB0420F1AC016F
:104880004A195B09DA011296159780F062827382E9
:1048900051834083D9016D937C93E114F10471F04D
:1048A000D7011396FC93EE9312978ECF22968C0F1E
:1048B0009D1FF90191838083F301EFCFF0937D0772
:1048C000E0937C0781CF4816590608F42C017D013E
:1048D000D3019ACFCB010E9476227C01009749F048
:1048E000AE01B8010E947C24C8010E9412238701F6
:1048F0006BCF10E000E068CFFB01DC0102C001904B
:104900000D9241505040D8F70895FB01DC01019011
:104910000D920020E1F7089511E0CCECD1E000E029
:1049200006C0802FFE010E9453222196011DCD3C1E
:0C493000D10780E00807A9F7F894FFCF3A
:10493C003000007E0780002C010000B004000060F5
:10494C00090000C012000080250000004B00000090
:10495C0096000000E100008024010000C20100006C
:10496C0084030090D00300340443045204610470A7
:10497C0004D0037F048D049A049F04A804B104C0DE
:10498C0004CF04DC04E904F904000000009D0307D3
:10499C00033403EA03650343035703000000002EAE
:1049AC000701072608D706FA06E706D80600000016
:1049BC0000750707032608D706EC0704085D0700F7
:1049CC000000003E090703260825080D0A006E6149
:1049DC006E00696E66006F766600454E2052455635
:1049EC00455253410050415241204144454C414EA7
:1049FC005445004E4F005349003C003E00202020FF
:104A0C0020202020202020202020202020006D6924
:104A1C004254207374617274656420617420393659
:104A2C003030004D4F44554C4F20525443206E6F44
:104A3C0020656E636F6E747261646F210053656ED6
:104A4C0064696E673A200041540054582D00415659
:104A5C0041494C41424C4500414141414141006179
:104A6C0061616161610042424242420043434343FF
:104A7C0000444444444400454545454500466F7256
:104A8C0077617264004261636B7761726400466F98
:104A9C0072776172642026204C65667400466F72D2
:104AAC0077617264202620526967687400426163E2
:104ABC006B776172642026204C65667400426163DA
:104ACC006B776172642026205269676874002F002E
:104ADC003A0020486F7200204D696E0020536567C4
:104AEC0000204D696C00202020456E207265706F8F
:104AFC00736F20202000417A00416C004D6F646F71
:104B0C002050616E656C20536F6C61722000436F96
:104B1C006D6D616E64656420417A696D7574682091
:104B2C003D00436F6D6D616E64656420456C657608
:104B3C006174696F6E203D00436F6D6D616E6465CD
:104B4C006420417A696D757468203D2000436F6D57
:104B5C006D616E64656420456C65766174696F6E19
:104B6C00203D2000204665636861207920486F72E3
:104B7C0061200020202020486F72617320202020AB
:104B8C0020002020204D696E75746F73202020202A
:104B9C0000202020536567756E646F732020200001
:104BAC00204D696C69736567756E646F73200020A6
:104BBC002048656C696F737461746F20002020202D
:104BCC00204D616E75616C2020004D6F646F005438
:104BDC00617267657420580054617267657420595E
:104BEC00004D6F7374726172205469656D706F0043
:104BFC00486F726120456E63656E6469646F00482E
:104C0C006F7261204170616761646F00556E6964F9
:104C1C002E205469656D706F004775617264617206
:104C2C0020792073616C69720053616C69720000A9
:00000001FF
